:020000040800F2
:10000000280900203D0D0008010400080304000831
:10001000070400080B0400080F040008000000009B
:1000200000000000000000000000000013040008B1
:100030001504000800000000170400081904000857
:10004000570D0008570D0008570D0008570D000800
:10005000570D0008570D0008570D0008570D0008F0
:10006000570D0008570D0008570D0008570D0008E0
:10007000570D0008570D0008570D0008570D0008D0
:10008000570D0008570D0008570D0008570D0008C0
:10009000570D0008570D0008570D0008CB0A00083F
:1000A000570D0008570D0008570D0008570D0008A0
:1000B000570D0008570D0008570D0008570D000890
:1000C000570D0008570D0008570D0008570D000880
:1000D000570D0008B30C0008570D0008570D000815
:1000E000570D0008570D0008570D0008570D000860
:1000F000570D0008570D0008570D0008570D000850
:10010000570D0008570D0008570D0008570D00083F
:10011000570D0008570D0008570D0008570D00082F
:10012000570D0008570D0008570D0008570D00081F
:10013000570D0008570D0008570D0008570D00080F
:10014000570D0008570D0008570D0008570D0008FF
:10015000570D0008570D0008570D0008570D0008EF
:10016000570D0008570D0008570D0008570D0008DF
:10017000570D0008570D0008570D0008570D0008CF
:10018000570D0008570D0008DFF80CD002F044FDB1
:10019000004800479D010008280900202DED048B30
:1001A0008EB000F043FA00247C4903C9CDE9060172
:1001B0000020049005907A490870A82000F098FC6F
:1001C0004FF4E13000F023FD00F0E2FA00F00CFC07
:1001D00000F026FB73480068734B744A812100903D
:1001E0000BA802F07AFA6F480068714B714A8121BE
:1001F000009008A802F071FA00206F4908600A20F8
:1002000000F090FC102000F031FA0A2000F08AFC87
:1002100001206A49C1F8A80267490C39086000202A
:100220006649C1F8A8024FF40071654800F00CFF60
:10023000B3E05B4800780128FAD16248006880F496
:10024000000000EE100AB8EE400A5F4880ED000A98
:1002500054485E4A5C4903680BA801F0A5FF5C485E
:10026000006880F4000000EE100AB8EE400A594819
:1002700080ED000A4B48584A5649036808A801F027
:1002800093FF9DED070AB8EE400A5348D0ED000AEF
:10029000B4EEE00AF1EE10FA05DD90ED000ABCEED6
:1002A000C00A8DED070A9DED050AB8EE400A4A48DE
:1002B000D0ED000AB4EEE00AF1EE10FA05D290EDAE
:1002C000000ABCEEC00A8DED050A02980190039861
:1002D0000290414890ED000ABCEEC00A8DED030A81
:1002E0000320B5FBF0F00499081A0299884201D264
:1002F000012000E00020DDE90112914201D201213C
:1003000000E000210840DDE90221914201D20121F3
:1003100000E00021084068B130480088800000EE0D
:10032000100AB8EEC00ADFED2E0A80EE808A0020A7
:100330002A490880641CB4F5FA6F0CD90798069016
:10034000059804904FF0FF30079000200590069923
:100350000498451A00241D4890ED000ABCEEC00A1E
:1003600010EE101A1FA002F08BFC1B4890ED000A43
:10037000BCEEC00A10EE101A1CA002F081FC18EEB0
:10038000100A02F03CFA41EC190B53EC192B19A09E
:1003900002F076FC0020024908704AE77C39000828
:1003A00020000020000000205400002078370008C2
:1003B0005802002074350008A80242420000424260
:1003C0000014024018000020080000200C0000204B
:1003D0001C0000201000002014000020220000203B
:1003E00000606A47423A202538640000413A2025DF
:1003F00038640000433A2025362E326600000000A3
:10040000704700BFFEE700BFFEE700BFFEE700BF8A
:10041000FEE7704770477047704700000CB500203A
:10042000019000907648006840F48030744908607C
:1004300000BF7348006800F4003000900198401C31
:100440000190009818B90198B0F5A04FF1D16C480F
:10045000006800F4003010B10120009001E000209D
:1004600000900098012846D165484030006840F06F
:1004700080506349403108606248006840F4404061
:10048000604908605E48083000685D4908310860CE
:100490000846006840F4004008600846006840F4E0
:1004A000A05008605848091F0860081F006840F005
:1004B0008070091F086000BF5148006800F000709C
:1004C0000028F9D040F20570504908604C480830C7
:1004D000006820F003004A490831086008460068B7
:1004E00040F00200086000BF45480830006800F096
:1004F0000C000828F8D10CBD10B54548006840F440
:100500007000434908603E48006840F001003C49E3
:10051000086000203A4908310860394800683D49C0
:100520000840374908603C48091D0860081F0068FA
:1005300020F48020091F0860002031490C31086038
:10054000FFF76CFF4FF0006031498039086010BD43
:1005500070B500200022022300240221284D083516
:100560002D6805F00C0020B1042806D0082834D1ED
:1005700007E02A4D2A4E356033E02A4D284E35607B
:100580002FE01F4D2D1D2D68C5F380541C4D2D1DD2
:100590002D6805F03F0154B1224DB5FBF1F5184E21
:1005A000361D3668C6F3881605FB06F209E01B4DBA
:1005B000B5FBF1F5124E361D3668C6F3881605FBFD
:1005C00006F20F4D2D1D2D68C5F301456D1C6B0006
:1005D000B2FBF3F5124E356003E0104D104E35605E
:1005E00000BF00BF064D08352D68C5F303150E4E3C
:1005F000705D0B4D2D68C540094E356070BD000023
:10060000003802400070004008544007003C02409F
:1006100088ED00E0FFFFF6FE103000240024F40017
:100620002400002000127A00280000201CB50121BF
:10063000202000F029FF4FF4C060009001208DF8C9
:10064000040000208DF8060003208DF8050001202D
:100650008DF807006946044800F078FC4FF4C0614B
:10066000014800F0EFFC1CBD0014024010B5044628
:1006700000BF0221444801F06BFA0028F9D021465E
:10068000414801F01CFA00BF01213F4801F060FA27
:100690000028F9D03C4801F00FFAC0B210BD00B5F7
:1006A00087B00121022000F0EFFE0121080300F0D5
:1006B00045FF3820059002208DF8180000208DF8A5
:1006C0001A0003208DF8190001208DF81B0005A9E0
:1006D0002E4800F03BFC052203212C4800F0C1FC11
:1006E00005220421294800F0BCFC052211462748B8
:1006F00000F0B7FC0121080300F075FF00214FF462
:10070000805000F070FF0020ADF800004FF48270C0
:10071000ADF802000020ADF80400ADF8060001209D
:10072000ADF808004002ADF80A003820ADF80C0022
:100730000020ADF80E000720ADF810006946124801
:1007400001F042F80121104801F038F9FF20FFF7CD
:100750008DFF07B000BD10B504460B4800884FF66A
:10076000C77108400849088008460088204308806F
:100770000121054801F022F910BD10B5FF242046E3
:10078000FFF774FF10BD000000300140000402407C
:100790001CB50121102000F077FE4FF4007000908E
:1007A00000208DF8040003208DF8050001208DF84D
:1007B00007006946894800F0C9FB4FF4EC500090EF
:1007C00001208DF8040000208DF8060003208DF82C
:1007D000050001208DF807006946804800F0B6FB4F
:1007E000FFF75DFF1CBD70B505460C4600207C4937
:1007F00008602846FFF73AFF0A2000F093F900202E
:10080000FFF734FF0A2000F08DF92046FFF72EFF96
:100810000A2000F087F901207249C1F8A80270BDD2
:1008200010B501206E490C3908606E49C1F8A80264
:1008300000206B49083908604FF42F7000F0BAF9B6
:1008400001206849C1F8A0024FF42F7000F0B2F9FE
:1008500000206349083908600A2000F063F901208C
:100860006049C1F8A0024FF42F7000F0A3F90020F6
:100870005B490C3908605B49C1F8A8021120FFF7F9
:10088000F5FE0A2000F04EF90120554908600A20C3
:1008900000F048F9E0214220FFF7A5FF0A2000F010
:1008A00089F901214120FFF79EFF0A2000F03AF963
:1008B000F0214320FFF797FF0A2000F033F9602171
:1008C0004420FFF790FF0A2000F02CF9002145207A
:1008D000FFF789FF0A2000F025F9EF214620FFF7F6
:1008E00082FF0A2000F01EF90F214720FFF77BFF4F
:1008F0000A2000F017F900214820FFF774FF0A20B2
:1009000000F010F9EA214920FFF76DFF0A2000F0FE
:1009100009F903214A20FFF766FF0A2000F002F9D7
:100920000C214B20FFF75FFF0A2000F0FBF810BD01
:1009300070B5044600202A4908602046FFF796FE5D
:100940000A2000F0EFF80020FFF790FE0A2000F0E8
:10095000E9F8FFF712FF05460A2000F0E3F801204E
:100960002049C1F8A802284670BD70B50546002090
:100970001B4908600A2000F0D5F81020FFF776FE2A
:100980000A2000F0CFF801201649C1F8A802144946
:100990000C39086000BF4FF40071104800F038FBBC
:1009A0000128F8D000200E490860002405E0FFF778
:1009B000E4FE28706D1C601CC4B2092CF7DB00201B
:1009C00007490C3908601120FFF750FE0A2000F09B
:1009D000A9F801200349C1F8A80270BD0010024027
:1009E000A8024242000042420EB50121880300F0F5
:1009F000A5FD0921042001F0ECF84FF400700090EF
:100A000000208DF804000C208DF8050001208DF8E1
:100A10000600684601F04EFB17208DF80800002004
:100A20008DF8090002208DF80A0001208DF80B00D6
:100A300002A800F09AF90EBD3EB50546B5F5007F57
:100A400042D1002406E0FF20FFF710FE0DF804005D
:100A5000601CC4B2092CF6DB002021490860214942
:100A600008609DF803001E49096841EA00401C49DE
:100A700008609DF80400096841EA002018490860F0
:100A80009DF8050009680843154908609DF80600AF
:100A90001449096841EA0040124908609DF80700BE
:100AA000096841EA00200F4908609DF808000968BC
:100AB00008430C4908600C480088401C0A4908801B
:100AC00001200A49087000BF3EBD10B54FF4007008
:100AD000FFF7B2FF4FF4007001F05DFB10BD0000A6
:100AE000180000201C000020220000202000002010
:100AF00010B504466FF0040000F084F9E11704EB30
:100B00005171C1F3C701394A11701046007800EBEA
:100B10004001C1EBC0104FF6FF7101EAC00034493B
:100B2000088010BD0146314A12784A434FF0E02355
:100B30005A6100229A611A46126942F001021A6152
:100B400000BF4FF0E022106900F001021AB100F47A
:100B50008032002AF5D04FF0E022126922F0010223
:100B60004FF0E0231A6100229A6170470146204A43
:100B700012884A434FF0E0235A6100229A611A46D4
:100B8000126942F001021A6100BF4FF0E0221069C1
:100B900000F001021AB100F48032002AF5D04FF0C3
:100BA000E022126922F001024FF0E0231A610022D4
:100BB0009A61704770B504464FF4077094FBF0F0EB
:100BC000C6B24FF4077094FBF0F100FB114085B200
:100BD00005E04FF40770FFF7C9FF701EC6B2002E84
:100BE000F7D115B12846FFF7C1FF70BD38000020CE
:100BF0003A00002000BF704700BF4C4A128802F044
:100C00004002002AF9D0C2B2484B9A80704710B512
:100C100088B004460121084600F036FC012110206E
:100C200000F08CFC07220921414800F01AFA072243
:100C30000A213F4800F015FA4FF4C06006900220E8
:100C40008DF81C008DF81D0000208DF81E0001207D
:100C50008DF81F0006A9364800F078F902940020AC
:100C6000ADF80C00ADF80E00ADF81000ADF81400B2
:100C70000C20ADF8120002A92C4801F04AF801211D
:100C80002A4801F0CEF8012240F22551274801F010
:100C90007EF925208DF8040003208DF805008DF8DD
:100CA000060001208DF8070001A800F05EF808B0EA
:100CB00010BD10B540F225511C4801F0A3F910B346
:100CC0001A4801F0DDF8C4B21A48008800F4004068
:100CD000C8B91848008800F4804060B10A2C03D0DD
:100CE00000201449088020E01248008840F40040A9
:100CF0001049088019E00D2C06D10E48008840F4F8
:100D000080400C49088010E00A480088C0F30D00BC
:100D100009490C5407480088401C064908800846C9
:100D20000088C72801DD0020088010BD00100140A8
:100D300000000240400000205C040020064880477C
:100D400006480047FEE7FEE7FEE7FEE7FEE7FEE7B0
:100D5000FEE7FEE7FEE7FEE7F90400088901000868
:100D600032490143324A1160704770B500210023B7
:100D70000F22C4781CB32E4C246804F4E064C4F53C
:100D8000E064C4F30721C1F10404E3B20A414478EA
:100D90009C40E1B28478144021430C07210E254C7D
:100DA00005786155047804F01F050124AC400578EE
:100DB0006D11AD0005F1E025C5F8004109E00478AA
:100DC00004F01F050124AC401B4D0678761145F850
:100DD000264070BD194A0A400243154B1B1F1A607A
:100DE000704739B1124A121D12680243104B1B1D85
:100DF0001A6006E00E4A121D126882430C4B1B1D3E
:100E00001A607047042808D14FF0E021096941F0C9
:100E100004014FF0E022116107E04FF0E021096981
:100E200021F004014FF0E022116170470000FA0543
:100E30000CED00E000E400E080E100E080FFFF1F37
:100E400010B504469848844208D10121084600F0B4
:100E500086FB0021012000F082FB76E0934884426B
:100E600008D10121022000F07AFB0021022000F0CD
:100E700076FB6AE08E48844208D10121042000F00C
:100E80006EFB0021042000F06AFB5EE0894884428A
:100E900008D10121082000F062FB0021082000F0A9
:100EA0005EFB52E08448844208D10121102000F00A
:100EB00056FB0021102000F052FB46E07F488442A0
:100EC00008D10121202000F04AFB0021202000F061
:100ED00046FB3AE07A48844208D10121402000F0E4
:100EE0003EFB0021402000F03AFB2EE07548844292
:100EF00008D10121802000F032FB0021802000F089
:100F00002EFB22E07048844208D10121801500F0B8
:100F100026FB0021A01500F022FB16E06B4884425E
:100F200008D10121401500F01AFB0021601500F0E6
:100F300016FB0AE06648844207D10121001500F043
:100F40000EFB0021201500F00AFB10BDF0B50A468B
:100F500000210023002400BF3DE0012505FA01F334
:100F6000156805EA03049C4234D105684F00032646
:100F7000BE40B543056015794E00B540066835435F
:100F800005601579012D02D01579022D16D18568DD
:100F90004F000326BE40B543856055794E00B540ED
:100FA000866835438560456801268E40B5434560B7
:100FB000456896798E40B6B235434560C5684F00A6
:100FC0000326BE40B543C560D5794E00B540C6681E
:100FD0003543C560491C1029BFD3F0BD4FF6FF71E2
:100FE00001600021017141718171C171704708B5C3
:100FF0004FF480320092009A0A430092009AC26134
:10100000C161009AC261C2690092C269009208BDC2
:101010000246002013690B400BB1012000E00020C4
:1010200070470146086980B2704702460020536944
:101030000B400BB1012000E00020704701464869D9
:1010400080B2704701837047418370470AB10183C2
:1010500000E0418370474161704742694A40426104
:101060007047F0B5002300244D07ED0E02FA05F39A
:10107000CE1000F1200555F826504E07F70E0F262A
:10108000BE40B543CF1000F1200646F82750CE10E1
:1010900000F1200555F8265045EA0304CE1000F172
:1010A000200545F82640F0BD000002400004024043
:1010B00000080240000C02400010024000140240F0
:1010C00000180240001C02400020024000240240A0
:1010D00000280240F948006840F00100F749086024
:1010E0000020F64908310860F4480068F4490840D7
:1010F000F2490860F348091D0860F348EF4984315C
:101100000860F0481038091D0860EC48006820F4B9
:101110008020EA4908600020E8490C310860E7496E
:101120008C31086070470021E44A921C117011460E
:101130000870704710B501460022002300204A11B4
:10114000012A02D1DD4C236808E0022A03D1DB4CDE
:101150007034236802E0D94C7434236801F01F0214
:10116000012494401C400CB1012000E0002010BD7F
:1011700038B5002000900024002500BF3120FFF783
:10118000D9FF05460098401C00900098B0F5A04F8C
:1011900001D0002DF2D03120FFF7CCFF08B101249F
:1011A00000E00024204638BD01460020C34A1068F4
:1011B00020F0F80040EAC10010607047C3490860A1
:1011C00070470021BD4A703211701170012802D0A1
:1011D00004280AD104E00121B84A7032117005E0F8
:1011E0000521B64A7032117000E000BF00BF7047A1
:1011F000B7490860704770B5049C41EA8215012622
:10120000C6EB530645EA0645054345EA0465AB4E81
:10121000361D356070BDAD4908667047820142EAEF
:101220000172A64B84331A607047A84988667047DC
:1012300010B5830143EA016343EA02739F4C88348B
:10124000236010BDA14908677047A049C864704772
:1012500002460020994B0833186820F0EC6042EAFF
:1012600001031843954B083318607047024600206D
:10127000924B0833186820F0784042EA0103184383
:101280008E4B083318607047014600208B4A0832A5
:10129000106820F00300084310607047874808304A
:1012A000006800F00C00704701460020834A0832B5
:1012B000106820F0F00008431060704701460020DD
:1012C0007E4A0832106820F4E050084310607047EE
:1012D00001460020794A0832106820F4604040EA54
:1012E000C10010607047F0B50021002200240225E3
:1012F00000260223714F08373F6807F00C0121B127
:10130000042905D0082937D105E0724F076036E07F
:10131000714F076033E0694F3F1D3F68C7F3805648
:10132000664F3F1D3F6807F03F036EB16A4FB7FB42
:10133000F3F7DFF888C10CF1040CDCF800C0CCF343
:10134000881C07FB0CF40CE0624FB7FBF3F7DFF8E7
:101350006CC10CF1040CDCF800C0CCF3881C07FB5A
:101360000CF4564F3F1D3F68C7F301477F1C7D00BB
:10137000B4FBF5F7076002E0564F076000BF00BFFF
:101380004E4F08373F6807F0F0010909534F7A5C68
:101390000768D7404760494F08373F6807F4E05176
:1013A000890A4E4F7A5C4768D7408760434F0837B9
:1013B0003F6807F46041490B484F7A5C4768D74063
:1013C000C760F0BD002100F44072B2F5407F0AD141
:1013D0003A4A0832116821F4F811414A0240114397
:1013E000364A08321160354A70321268C0F30B0376
:1013F0001A43324B70331A607047354944390860DC
:101400007047334940390860704736490860704773
:1014100001460020294A8C32106820F01F004A1E25
:101420001043264A8C321060704701460020234A40
:101430008C32106820F4F8504A1E40EA02201F4AFD
:101440008C3210607047014600201C4A8C321068B4
:1014500020F4401008431060704701460020174AEE
:101460008C32106820F44000084310607047014639
:101470000020124A8C32106820F44030084310607B
:10148000704719490860704739B10C4A3032126808
:1014900002430A4B30331A6006E0084A30321268C1
:1014A0008243064B30331A607047F9B1034A343235
:1014B00012680243014B34331A601CE000380240CA
:1014C000FFFFF6EA10300024003000200000474201
:1014D000800E47420024F40000127A0042000020EF
:1014E000FFFCFF0F5C014742E01147428F4A126840
:1014F00082438E4B1A60704739B18C4A121D1268B4
:1015000002438A4B1B1D1A6006E0884A121D1268AE
:101510008243864B1B1D1A60704739B1834A0C32D7
:1015200012680243814B0C331A6006E07F4A0C328A
:10153000126882437D4B0C331A60704739B17B4A85
:10154000103212680243794B10331A6006E0774A72
:10155000103212688243754B10331A60704739B1EC
:10156000724A243A12680243704B243B1A6006E028
:101570006E4A243A126882436C4B243B1A607047CF
:1015800039B16A4A203A12680243684B203B1A601C
:1015900006E0664A203A12688243644B203B1A6098
:1015A000704739B1614A1C3A126802435F4B1C3BD9
:1015B0001A6006E05D4A1C3A126882435B4B1C3B92
:1015C0001A60704739B1594A143A12680243574BAE
:1015D000143B1A6006E0554A143A12688243534B92
:1015E000143B1A60704739B1504A103A12680243EE
:1015F0004E4B103B1A6006E04C4A103A1268824388
:101600004A4B103B1A60704739B1484A1C32126885
:101610000243464B1C331A6006E0444A1C321268EF
:101620008243424B1C331A60704739B13F4A203223
:10163000126802433D4B20331A6006E03B4A2032D9
:1016400012688243394B20331A60704739B1374AE8
:10165000243212680243354B24331A6006E0334AC1
:10166000243212688243314B24331A60704739B1F7
:101670002E4A2C32126802432C4B2C331A6006E09F
:101680002A4A2C3212688243284B2C331A60704746
:1016900039B1264A303212680243244B30331A6083
:1016A00006E0224A303212688243204B30331A60FF
:1016B0007047012808D11D493C31096841F00801F3
:1016C0001A4A3C32116007E018493C31096821F0A0
:1016D0000801164A3C321160704739B1134A273A63
:1016E00012780243114B273B1A7006E00F4A273A43
:1016F000127882430D4B273B1A7070470B484030DD
:10170000006840F080700949403108607047014628
:101710000020064A283A12680A400AB1012000E077
:10172000002070470149263908707047343802405C
:1017300010B50446FB48844208D101218014FFF70C
:1017400052FF0021A014FFF74EFF3CE0F648844210
:1017500008D101210014FFF735FF00212014FFF705
:1017600031FF30E0F148844208D10121C013FFF776
:1017700029FF0021E013FFF725FF24E0EC48844215
:1017800008D101214014FFF72EFF00216014FFF75C
:101790002AFF18E0E748844209D101210805FFF734
:1017A00022FF00214FF48010FFF71DFF0BE0E248FD
:1017B000844208D101214805FFF715FF00214FF4AD
:1017C0000010FFF710FF10BD10B50022028802F4D0
:1017D00041520B884C8823438C882343CC88234375
:1017E0000C8923434C8923438C892343CC8923438D
:1017F0001A430280838B4FF2FF74234083830B8A4A
:10180000038210BD2DE9F04F0025022300244FF084
:10181000010900220026002794469046B0F81CA03B
:101820004FF2400B0AEA0B0AA0F81CA04FF0020A84
:10183000A0F820A0858BD1F808A0BAF1020F01D141
:1018400000BF82E0B1F804A0BAF1000F02D14FF05E
:10185000010901E04FF00209DFF8E0A2DAF800A088
:101860000AF4000ABAF1000F09D0DFF8D0A2DAF8C2
:1018700000A02AF4000ADFF8C4B2CBF800A0DFF819
:10188000BCA20AF17C0ADAF800A0CAF3881CDFF8CF
:10189000ACA20AF17C0ADAF800A0CAF30278DFF8F9
:1018A0009CA2AAF1040ADAF800A00AF03F07DFF8C8
:1018B0008CA2AAF1040ADAF800A00AF4800ABAF5A8
:1018C000800F08D1DFF878A2BAFBF7FA0AFB0CFA0E
:1018D000BAFBF8F607E0DFF86CA2BAFBF7FA0AFBEE
:1018E0000CFABAFBF8F6B1F806A0BAF5007F0ED1F3
:1018F0004FEA162A0AEB8A0A4FEA4A0AD1F808B0D8
:10190000BAFBFBFA0AF1050A1FFA8AF20FE04FEA66
:10191000491AB6FBFAFA0AEB8A0A4FEA4A0AD1F8E0
:1019200008B0BAFBFBFA0AF1050A1FFA8AF24FF077
:101930000A0AB2FBFAF202F00104A2EB040ACAF3AB
:101940004F034FF6FF7A0AEA0424022B01DBFF2B38
:1019500001DD02230024B1F806A04AEA040A4AEA9B
:10196000030AA0F820A0B1F804A0B1F80CB04AEA2C
:101970000B0AB1F802B04AEA0B0AB1F800B04AEA21
:101980000B0A4AF4006A4AEA05058583BDE8F08F30
:101990000021018041808180C1800181418181815C
:1019A000C18107210182704700210180418081802F
:1019B000C1800221816000218181704721B10288AC
:1019C00042F04002028004E002884FF6BF731A40E2
:1019D0000280704721B1828B42F48062828304E0EE
:1019E000828B4FF6FF331A408283704702884FF292
:1019F000FF731A40028002880A4302807047B1F5E3
:101A0000804F04D1028842F48042028004E00288C0
:101A10004BF6FF731A40028070474FF6FF62914207
:101A200004D0028842F48072028004E002884FF6FB
:101A3000FF631A400280704721B1828842F004029D
:101A4000828004E082884FF6FB731A4082807047E0
:101A500021B1828842F01002828004E082884FF631
:101A6000EF731A408280704730B500220023848BC8
:101A70004FF240052C40848302240484828B0C881E
:101A8000B4F5007F01D00C8814B94FF4807308E0DE
:101A90000C88B4F5407F03D00C88B4F5807F00D16A
:101AA00000238C888D892C434D882C431C4344F49F
:101AB00000642243828330BD01468889704781815A
:101AC000704721B1028842F40052028004E002888B
:101AD0004DF6FF731A4002807047018841F480512F
:101AE0000180704702460020012901D0108B00E0E0
:101AF000908A70470146088A70471AB183880B4361
:101B0000838002E083888B438380704730B5002454
:101B100000230C110125A540ABB2AAB185881D4355
:101B2000858014E00030014000380040003C004057
:101B30000034014000500140005401400838024088
:101B400000127A000024F40085889D43858030BD12
:101B50000246002013890B400BB1012000E0002059
:101B60007047CA4302817047F0B502460020002446
:101B70000023002501F00F070126BE40B4B20B116F
:101B800001269E40B3B2968806EA030516892640D0
:101B900016B10DB1012000E00020F0BD10B500220B
:101BA00001F00F040123A3409AB2D343038110BD77
:101BB00010B501218803FFF716FD00214FF4804086
:101BC000FFF711FD10BD1C49086070471B490862F2
:101BD000704730B500228B071C0F0F2303FA04F265
:101BE000154B08338C1053F824309343124C0834AF
:101BF0008D1044F8253023468C1053F824308C0780
:101C0000240F00FA04F423430B4C08348D1044F8DD
:101C1000253030BD0949DC3108607047084908604B
:101C20007047002004492031096801F4807109B12E
:101C3000012000E0002070470038014000002742EA
:101C40000004274210B50446FA48844208D1012115
:101C50001020FFF7C8FC00211020FFF7C4FC57E05C
:101C6000F548844209D101214804FFF7ABFC00216B
:101C70004FF40030FFF7A6FC4AE0F048844209D157
:101C800001218804FFF79EFC00214FF48020FFF71C
:101C900099FC3DE0EA48844209D10121C804FFF7DC
:101CA00091FC00214FF40020FFF78CFC30E0E54868
:101CB000844209D101210805FFF784FC00214FF47B
:101CC0008010FFF77FFC23E0DF48844208D1012128
:101CD0002020FFF788FC00212020FFF784FC17E07C
:101CE000DA48844209D101218807FFF76BFC002103
:101CF0004FF08040FFF766FC0AE0D548844207D1E8
:101D000001214005FFF75EFC00216005FFF75AFC4A
:101D100010BD2DE9FF4705460E460024A14600BF31
:101D2000A046B08900B100BF2C8A24F44054F0884A
:101D300004432C82AC8941F20C608443B088318921
:101D40000843718908430443AC81AC8A24F440748D
:101D5000B0890443AC826846FFF7C5FAB5488542AE
:101D600002D0B948854202D1DDF80C9001E0DDF8DF
:101D70000890A88900F4004040B109EBC90000EBCD
:101D8000091031684900B0FBF1F707E009EBC90021
:101D900000EB091031688900B0FBF1F76420B7FB54
:101DA000F0F004012009642101FB1078A88900F4F7
:101DB000004040B1322000EBC800B0FBF1F000F071
:101DC0000700044308E0322000EB08106421B0FB58
:101DD000F1F000F00F0004432C81BDE8FF874FF4C1
:101DE0001651016000218180C18001810C21418157
:101DF00000218181704710B502460020108A20F42E
:101E000070600B884C8823438C882343CC88234301
:101E10001843108210BD0021018041808180C18063
:101E2000704721B1828942F40052828104E08289A4
:101E30004DF6FF731A4082817047028B02F47F4295
:101E40000283028B0A430283704721B1828942F4E4
:101E50000042828103E08289C2F30E0282817047D0
:101E600021B1828A42F40062828204E0828A4FF2C7
:101E7000FF731A4082827047C1F308028280704764
:101E800001468888C0F308007047028A4FF6F07355
:101E90001A400282028A0A430282704721B1828973
:101EA00042F00202828104E082894FF6FD731A40FB
:101EB0008281704782894FF2FF731A408281828942
:101EC0000A4382817047028A4FF6DF731A4002820A
:101ED000028A0A430282704721B1028A42F4804298
:101EE000028204E0028A4BF6FF731A4002827047B6
:101EF000818941F001018181704721B1828A42F0DC
:101F00000802828204E0828A4FF6F7731A408282C6
:101F10007047028BD2B20283028B42EA0122028313
:101F2000704721B1828A42F02002828204E0828AD4
:101F30004FF6DF731A408282704721B1828A42F0E5
:101F40001002828204E0828A4FF6EF731A40828286
:101F50007047828A4FF6FB731A408282828A0A4354
:101F60008282704721B1828A42F00202828204E0BA
:101F7000828A4FF6FD731A40828270471AB1838AB3
:101F80000B43838202E0838A8B4383827047F0B5E0
:101F90000346002400260025002040F66A17B942B7
:101FA00000D100BF1846C1F3421401F01F060127FB
:101FB00007FA06F5012C01D10C3004E0022C01D106
:101FC000103000E014301AB107682F43076002E0B8
:101FD0000768AF430760F0BD02460020B1F5007FFF
:101FE00000D100BF13880B400BB1012000E000209E
:101FF000704701F40072B2F5007F00D100BFCA4300
:102000000280704770B5024600240023002500209E
:1020100040F66A16B14200D100BFC1F3421501F08B
:102020001F03012606FA03F3012D13D196893340CD
:1020300017E000000010014000440040004800404C
:10204000004C004000500040001401400078004067
:10205000007C0040022D02D1168A334001E0968AAE
:1020600033400C12012606FA04F41688344013B1EA
:102070000CB1012000E0002070BD10B5002200234B
:1020800040F66A14A14200D100BF0A120124944014
:10209000A3B2DC43048010BD002041490860091D43
:1020A0000860091D0860091D08603E483C4914315C
:1020B0000860704700213A498279002A3AD00A46DE
:1020C000126803689A430B461A600A1D1268036877
:1020D0009A430B1D1A60027911440A6803681A4377
:1020E0000A602F4A0832126803689A432C4B08335F
:1020F0001A601A1D126803689A43294B0C331A6040
:102100004279102A0ED11A1F126803681A43244B11
:1021100008331A601A1D126803681A43204B0C33E7
:102120001A600DE01E49427911440A6803681A4397
:102130000A6005E0027911440A6803689A430A605C
:1021400070470021016001710C21417100218171F2
:1021500070471349103109680143114A1032116068
:102160007047014600200E4A143212680A400AB134
:10217000012000E0002070470949143108607047D1
:1021800001460020064A143212680A400AB10120B2
:1021900000E00020704702491431086070470000D9
:1021A000003C0140FFFF7F002DE9F00F6FF00304BA
:1021B0002DED0C8B5FEAD30AD0E901C7B0F800908F
:1021C00004EB89040CEB04089FEDFE9A18BF4FEA5C
:1021D000D90B00F0C18100BF91ED000AB0EE493A81
:1021E00088ED000A91ED010AF0EE430A88ED010A3C
:1021F00091ED020AB0EE431A88ED020A91ED030A4E
:10220000F0EE431A88ED030A91ED040AB0EE432A7A
:1022100088ED040A91ED050AF0EE432A88ED050ADF
:1022200091ED060AF0EE433A88ED060A91ED070AB1
:10223000203188ED070ADCED007A9CED017ADCEDB7
:10224000026A9CED036ADCED045A9CED055ADCED54
:10225000064AB0EE434A3D460CF11C0408F1200842
:102260005FEA0B0600F02681D5ED008A94ED008A26
:1022700026EE280A65EEA89A25EE28AA27EEA8BA27
:1022800064EEA8AA67EE28BA26EEA8CA68EE28CAA5
:10229000D5ED018A32EE000A32EEA92A73EE0A2A3F
:1022A00030EE8BBA33EEAA3AD5ED020A74EE2C3A30
:1022B00071EE8C1AD4ED017A31EE2B1A27EE28DA62
:1022C00026EEA8CA66EE28BA25EEA84A65EE289A38
:1022D00024EEA8AA68EE28AA67EEA8CA94ED027AAE
:1022E0007BEE0D8A31EE0C1A71EEAB1A30EE040A59
:1022F00032EE292A72EE8A2A33EE2A3A73EEAC3A8B
:1023000066EEA0CA66EE20BA65EEA09A25EE20AA77
:1023100024EEA04A68EE20AA27EEA0BA27EE20CA33
:10232000D5ED030AD4ED036A30EE0A0A32EE042A30
:1023300078EEAC8A31EE2B1A71EEA91A72EEAA2A47
:1023400033EE0B3A73EE8C3A66EE20CA65EEA0BA15
:1023500065EE209A24EEA04A28EE20AA67EEA0AAF5
:1023600027EE20BA26EEA0CAD5ED040A78EEAC8A94
:1023700031EE2B1A71EEA91A30EE040A32EE0A2A57
:1023800072EEAA2A33EE0B3A73EE8C3A65EEA0CACF
:1023900094ED046A65EE20BA24EEA0BA28EE204A35
:1023A00067EEA09A27EE20AA66EEA0AA26EE20CA23
:1023B000D5ED050AD4ED055A31EE2B1A71EE8B1AC4
:1023C00078EEAC8A30EE040A32EE292A72EE8A2ABE
:1023D00033EE2A3A73EE8C3A65EE20CA24EEA0BAA8
:1023E00068EE20BA27EEA04A67EE209A26EEA0AA51
:1023F00066EE20AA25EEA0CAD5ED060A30EE040A44
:1024000032EE292A27EE204A94ED065A72EE8A2AE5
:1024100066EEA09A78EEAC8A31EE0B1A71EEAB1A2A
:1024200033EE2A3A73EE8C3A26EE20AA65EEA0AA85
:1024300064EEA0BA28EE20CA27EEA0BA65EE20CA44
:10244000D5ED070A30EE040A32EE294A72EE8A9A76
:1024500033EE2AAAD4ED074A31EE0C1A78EEAB8A95
:1024600028EE20CA71EE8B1A73EEACAA66EE202A13
:1024700067EEA0BA27EE20BA26EEA02A25EEA03AF3
:1024800065EE203A24EEA08A74EE222A78EE8C0AB9
:1024900031EE2B1A71EE8B1A30EE022A39EE833AA6
:1024A0007AEE233A3AEE884A20342035761E7FF4BD
:1024B000DBAE00BF19F0070636D000BF95ED008AED
:1024C00094ED000A241D67EE889A67EE088A26EECE
:1024D00088AA66EE08AA25EE88BA65EE08BA24EE48
:1024E00088CA20EE088AF0EE477AB0EE667AF0EEFF
:1024F000466AB0EE656AF0EE455A70EEA90A31EE12
:10250000281A71EE8A1A32EE2A2A72EE8B2A33EEDC
:102510002B3A73EE8C3A34EE084AB0EE645A2D1D15
:10252000F0EE404A761EC9D1C2ED000A82ED011AD2
:10253000C2ED021A82ED032AC2ED042A82ED053AA9
:10254000C2ED063A82ED074A2032BAF1010A0CF1D7
:10255000200C7FF441AE00BF13F0070A43D000BF48
:10256000B1EC010A3E1D0CF10404B9F10103A8EC21
:10257000010ADCED000A97ED001AB0EE490A00EE00
:10258000810A29D0B3F1004F7DD2002B24DD251F15
:10259000341F13F0010F07D0D5ED010A94ED011A95
:1025A000241D2D1D00EE810A5B1015D0D5ED010A0A
:1025B00094ED011A00EE810AD5ED020A94ED021A9B
:1025C00002E000000000000000EE810A5B1E04F142
:1025D000080405F10805E9D1A2EC010ABAF1010AE3
:1025E0000CF1040CBCD14068A9F10104A3081FD070
:1025F000B3F1004F54D2002B1ADD624601461D464E
:1026000092ED000A81ED000A92ED010A81ED010AC6
:1026100092ED020A81ED020A92ED030A103281ED79
:10262000030A10316D1EEBD10CEB031C00EB031001
:1026300014F0030202BFBDEC0C8BBDE8F00F704735
:10264000B2F1004F42D2002A1ADD001FACF10401A2
:1026500012F0010F05D091ED010A80ED010A001D75
:10266000091D52080CD000BF91ED010A80ED010A4E
:1026700091ED020A083180ED020A0830521EF3D1B2
:10268000BDEC0C8B00E002E0BDE8F00F7047F4EC0D
:10269000010A5B1EB6EC011A00EE810AF7D19BE736
:1026A0009CED000A80ED000A9CED010A80ED010A14
:1026B0009CED020A80ED020A9CED030A0CF1100C5D
:1026C00080ED030A10305B1EEAD1B1E7BCEC010AD1
:1026D000521EA0EC010AF9D1D2E770B50446049865
:1026E000218008448000011F1D461846A26000F0AA
:1026F00009F8656070BDD2B201E000F8012B491EF7
:10270000FBD270470022F6E710B513460A4604468E
:102710001946FFF7F0FF204610BD2DE9FE4F81EA74
:10272000030404F0004421F0004100944FF0000B3A
:1027300023F0004350EA01045ED052EA03045BD068
:10274000C3F30A54C1F30A552C44A4F2F3340194A0
:10275000A0FB0254C1F3130141F48011C3F313032E
:1027600043F4801301FB024400FB034E840A970AE2
:1027700044EA815447EA8357A4FB076802958D0A0F
:1027800005FB07854FEA932C04FB0C542705029D9B
:102790004FEA065847EA1637B5EB08056EEB070C0B
:1027A000870E920E47EA811742EA8312A7FB0201C5
:1027B000B6EB0B0164EB00042B0D43EA0C335E18FF
:1027C00044EB1C50DA465146E7FB0201C5F3130403
:1027D0004FEA0B3343EA14534FEA0432019C43EAB5
:1027E0000603A4F10C040294009CCDE900B400F0AF
:1027F0007FF803B0BDE8F08F00200146F9E700F054
:10280000004230F000400AD0C10D01F56071C0F304
:10281000160042EA0151C2084007114370470020E8
:102820000146704730B50B460146002020220124A6
:1028300009E021FA02F59D4205D303FA02F5491B8E
:1028400004FA02F52844151EA2F10102F1DC30BDA4
:102850002DE9F05F0546002092469B4688460646D5
:10286000814640241BE0284641464746224600F068
:1028700020F853465A46C01A914110D311461846C3
:10288000224600F0DBF92D1A67EB01084F4622467D
:102890000120002100F0D2F917EB00094E41201E63
:1028A000A4F10104DFDC484631462A464346BDE830
:1028B000F09F202A04DB203A21FA02F00021704721
:1028C00021FA02F3D040C2F1200291400843194698
:1028D000704710B5141E73F1000408DA401C41F172
:1028E000000192185B411A4301D120F0010010BD94
:1028F0002DE9F04D92469B4611B1B1FA81F202E00A
:10290000B0FA80F22032904600F098F904460F4663
:1029100040EA0A0041EA0B0153465A46084313D0E5
:10292000114653EA010019D0C8F140025046FFF7A2
:10293000C0FF05460E4650465946424600F07EF915
:10294000084305D0012004E020463946BDE8F08D5B
:102950000020054346EAE0762C4337430A98630596
:10296000E40AA0EB08000022FD0A44EA47540A30BA
:1029700002D500200146E9E7010510196941DDE9AA
:10298000084500196941BDE8F04DA2E72DE9FE4F69
:10299000804681EA0300C00F0C46009021F0004100
:1029A00023F00045B8EB0200A94105D2404621467C
:1029B00090461C460B46024623F00040104347D089
:1029C000270DC7F30A00C3F30A510290401A019081
:1029D00040286BDAC3F3130040F4801B0098924642
:1029E00020B10023D2EB030A63EB0B0B019859468D
:1029F000C0F14002504600F021F906460D4650460F
:102A00005946019A00F029F910EB080061410024B1
:102A100087EA115284EAE7731A4340D0009A62B3FE
:102A2000019A012A4FEA075215DC001B61EB0201F3
:102A30004FF0004202EA0752CDE90042001C41F586
:102A4000801132462B46FFF753FF03B0BDE8F08FED
:102A500040462146F9E7001B61EB0201001C41F5ED
:102A6000801300185B412018A2F5001747EB030103
:102A700040EAD570B6196D4111E06D084FEA36068F
:102A800045EAC0754FEA0752001B61EB0201001CCA
:102A900041F5801149084FEA300000195141324692
:102AA0002B4603B0BDE8F04FFFF713BF009801229B
:102AB00040000023D0EB020263EBE0730098214654
:102AC0004FEAE074B8EB000061EB0401E9E783F042
:102AD00000435BE781F0004158E72DE9F04D81EAC2
:102AE000030404F0004B21F0004514464FF0000AA7
:102AF00023F0004150EA050220D054EA01021DD023
:102B0000C5F30A570246C5F31303C1F31300C1F31B
:102B10000A5640F4801543F48013A7EB0608101BF7
:102B2000D64608F2FD3873EB050002D308F1010820
:102B300001E092185B41B8F1000F03DA0020014672
:102B4000BDE8F08D00204FF48011064684460EE06B
:102B5000171B73EB050705D3121B63EB0503064335
:102B60004CEA010C49084FEA300092185B4150EAE8
:102B70000107EDD152EA030012D082EA040083EA91
:102B80000501084305D0101BAB4106D201220023EA
:102B900006E000224FF0004302E06FF00102531004
:102BA0001AEB06004CEB085110EB0A0041EB0B014D
:102BB000BDE8F04DFFF78DBEC1F30A52C1F313011A
:102BC00040F2FF3341F480119A4202DA00200146BC
:102BD000704740F233439A42A2F2334202DC52423F
:102BE000FFF767BE00F02AB830B5041E71F100048B
:102BF00004DB4FF00044404264EB0101141E73F10A
:102C0000000405DB1C464FF00043524263EB040313
:102C1000994208BF904230BD064C074D06E0E0687F
:102C200040F0010394E8070098471034AC42F6D313
:102C3000FDF7AEFA84390008A4390008202A04DB25
:102C4000203A00FA02F1002070479140C2F12003BF
:102C500020FA03F3194390407047202A06DBCB1774
:102C6000203A41FA02F043EAE07306E041FA02F347
:102C7000D040C2F12002914008431946704700003D
:102C80000FB4054B10B503A9044A029800F0DAF816
:102C900010BC5DF814FB0000F90B00083C0000209C
:102CA00002E008C8121F08C1002AFAD17047704715
:102CB000002001E001C1121F002AFBD17047000073
:102CC0002DE9FF5F82B00021DDE90430020DDDF85F
:102CD00040B0034318D044F61050A2F2FF324243F2
:102CE0001514119801281FD0A5EB0B00401C5FEABA
:102CF000000A4FF000064E4FDFF83891B0465046BC
:102D000015D5CAF1000413E0119801244AA3012843
:102D100001D16FEA0B010298119AC0E90031C0E9B4
:102D2000024206B0BDE8F09FCBF10000DFE70446A9
:102D30000021404A491842EB0450CDE9001012E04E
:102D4000E00707D032463B4640464946FFF7E5FCE0
:102D50008046894632463B4610461946FFF7DDFC61
:102D600006460F466410002CEAD1DDE90401DDE9D6
:102D70000023BAF1000F06DAFFF7CFFC42464B46BC
:102D8000FFF7CBFC05E0FFF7A8FE42464B46FFF7F6
:102D9000A4FE04460E460022284BFFF725FF03D869
:102DA0004FF0FF30014607E00022254B2046314618
:102DB000FFF7ECFDFFF700FF102409E0002C0ADB11
:102DC0000A220023FFF744FD039B30321A55641E8C
:102DD00050EA0102F2D1641C039AC4F111031444B5
:102DE000119A012A03D0012208430DD10AE00843B9
:102DF00004D000204FF0110B119072E7A3EB0B05EC
:102E00006D1E0DE05B4504DD4FF0000205F101058C
:102E100004E003DA4FF00002A5F10105002AECD02E
:102E200002981199C0E90231C0E9004579E7000034
:102E3000000014400000F03F300000000000F043AC
:102E40000000E03F2DE9FF4F95B09B4689460646BE
:102E500000250FE2252877D100242746F84A0121D2
:102E6000059400E0044316F8013F203B01FA03F00B
:102E70001042F7D130782A2811D06FF02F03307824
:102E8000A0F13002092A16D8059A44F0020402EB98
:102E9000820203EB42021044761C0590EFE759F8DA
:102EA000042B0592002A03DA504244F400540590A2
:102EB00044F00204761C30782E2816D116F8010F43
:102EC00044F004042A280DD06FF02F023078A0F1CE
:102ED0003003092B09D807EB870302EB4303C7181C
:102EE000761CF3E759F8047B761C30786C280FD0F9
:102EF00006DC4C2817D068280DD06A2814D104E0CD
:102F0000742810D07A280FD10DE044F400140AE0A0
:102F100044F4801401E044F440147278824202D1F7
:102F200004F58014761C761C307866280BD013DCF0
:102F3000582877D009DC002875D04528F6D04628D7
:102F4000F4D047281AD19DE118E0632835D06428D1
:102F500079D0652812D195E1702873D008DC6728F4
:102F6000F1D069286FD06E280DD06F2806D1B5E05A
:102F700073282CD0752875D0782874D05A461799A4
:102F800090476D1C75E1C4F30250022809D0032854
:102F90000DD0D9F8001004280DD00D6009F10409F6
:102FA00067E1D9F80010EA17C1E90052F6E7D9F84D
:102FB00000100D80F2E70D70F0E719F8041B8DF892
:102FC000001000208DF80100EA46012003E059F8C6
:102FD00004AB4FF0FF3061074FF0000102D40DE069
:102FE00008F101018846B9420FDA8045F8DB1AF88A
:102FF00008100029F4D108E008F101018846814257
:10300000FADB1AF808100029F6D105985B46A0EB08
:10301000080721463846179A00F094FA284400EB36
:10302000080507E04DE029E10DE01AF8010B5A46CA
:1030300017999047B8F10108F7D25B462146384608
:10304000179A13E142E00A220092C4F302524FF0B1
:10305000000A022A08D059F804CB032A4FEAEC717F
:103060000AD00DE029E02AE009F1070121F007026A
:10307000F2E802C1914609E00FFA8CFC4FEAEC71CC
:10308000042A03D14FFA8CFC4FEAEC71002907DACD
:103090000A460021DCF1000C61EB02012D2202E066
:1030A000220504D52B228DF80420012203E0E2073B
:1030B00001D02022F7E7904659E00A2102E01022D1
:1030C0000DE010214FF0000A00910BE010224FF0AC
:1030D000000A44F004040827009203E008224FF09D
:1030E000000A0092C4F30252022A05D059F804CB18
:1030F0000021032A08D009E009F1070121F00702A5
:10310000F2E802C1914605E01FFA8CFC042A01D1C5
:103110000CF0FF0C4FF00008220728D5702806D0CD
:10312000009B83F0100353EA0A0305D00EE040220F
:103130008DF80420012208E05CEA010206D030226A
:103140008DF804208DF8050002229046009B83F044
:10315000080353EA0A030AD15CEA010201D16207BB
:1031600005D530228DF804204FF001087F1E582825
:1031700004D034A003900EA802900DE036A0F9E729
:1031800053466046009AFFF763FB84460398825CCF
:103190000298401E029002705CEA0100F0D1029891
:1031A00006A9081A00F1200A600702D524F4803429
:1031B00000E00127574502DDA7EB0A0000E00020F0
:1031C00000EB0A01009005984144401A0590E00385
:1031D00006D45B462146179A059800F0B3F90544DA
:1031E000002706E001A85A46C05D179990476D1C5C
:1031F0007F1C4745F6DBE0030CD55B462146179A5A
:10320000059800F09FF9054404E030205A461799CC
:1032100090476D1C0099481E00900029F5DC08E0DD
:10322000029802995A460078491C029117999047D2
:103230006D1CBAF10001AAF1010AF1DC65E10000A0
:10324000092801003031323334353637383961627C
:103250006364656600000000303132333435363740
:1032600038394142434445460000000000F058F917
:103270000544761C307800287FF4ECAD19B0284660
:10328000BDE8F08F620700D4062709F1070222F09B
:10329000070CFCE80223E14603F000485FEA080C53
:1032A00002D00FF2702C0DE05FEA045C02D50FF241
:1032B000682C07E05FEAC47C02D00FF2602C01E0CA
:1032C000AFF2700C4FF0FF3823F00043CDF850C040
:1032D00065280CD006DC452809D046281DD0472893
:1032E0003DD13DE0662818D067287ED138E0002126
:1032F000112F01DB112000E0781CCDE9000106A9A7
:103300000EA8FFF7DDFCDDE90F010E9A0391002105
:10331000009207F1010A04914DE04FF00040009740
:10332000CDE9011006A90EA8FFF7CAFCDDE90F02DE
:1033300003920E9B11990022DDF80CA000930492D9
:1033400011B9791C00EB010AB7EB0A0004D4C0F1F3
:10335000FF3007F1010A0490AAEB0700019044E056
:10336000012F00DA01270021112F01DD112000E0DB
:103370003846CDE9000106A90EA8FFF7A1FCDDE95A
:103380000F010E9A0391002104910092BA46210781
:103390000CD40399514500DA8A46BAF1010F05DDD4
:1033A000009AAAF10101515C302908D0B84202DA32
:1033B00010F1040F06DA0121CDE9011015E0AAF1A0
:1033C0000101E9E7002805DC049901440491AAEB16
:1033D000000102E0411C514500DD8A460499401A73
:1033E000401C01904FF000400290200704D4019847
:1033F000504501DBCDF8048000208DF84F00029885
:103400000DF14F07B0F1004F25D02B200E90029800
:103410004FF0020800280CDA404202902D200E9056
:1034200007E00A210298FFF7FDF93031029007F812
:10343000011DB8F10001A8F10108F2DC0298002892
:10344000EFD1791E0E980870307800F0200040F01F
:10345000450007F8020D12A8C01B00F107081498D8
:10346000007800B1012000EB0A01019801EBE07146
:1034700005984144401A401E0590E00306D45B467F
:103480002146179A059800F05DF8054414980078D5
:1034900018B15A46179990476D1CE00324D55B4636
:1034A0002146179A059800F04DF805441CE0049851
:1034B000002807DBDDE90301884203DD0098405C5A
:1034C000179901E0179930205A469047049805F162
:1034D0000105401C04900198401E019004D12E204B
:1034E0005A46179990476D1CBAF10001AAF1010ADA
:1034F000DDDC05E017F8010B5A46179990476D1C63
:10350000B8F10001A8F10108F4DC5B462146179AE6
:103510000598ABE62D0000002B0000002000000005
:103520002DE9F041044600251E461746880404D4C0
:1035300005E039462020B0476D1C641EF9D52846A9
:10354000BDE8F0812DE9F041044600251E46904675
:10355000C80301D5302700E02027880404D505E002
:1035600041463846B0476D1C641EF9D52846BDE873
:10357000F0810000A3CE1338885A863948EF163AF6
:10358000DC245C3A01486E3AD37A3F3A40E7C639C8
:10359000A21B313876C388B8B5D54039EAE83F3A3E
:1035A0008926AE3A706BD63A814EB93A1E75343AD6
:1035B000A4AE57B9558148BAAE2A1BBADBB1AF39B0
:1035C000A3C5CD3A02B01B3BCCC20A3B2B5F2F3ABE
:1035D000B068B9BA0AD14BBB8FEC62BB24B30EBB47
:1035E000FDF9B4386C4DFF3A0CD8033BF0A49CB9FC
:1035F0000DC18BBB639804BCACBE20BC4DD109BCD3
:10360000519D96BB4DE622BAE358513A46AA01BBFA
:10361000418B09BC0D8880BCAD5BA5BCC3179EBCAB
:10362000757558BC5DCBA9BB9335E9B88EB0FFBAB0
:10363000A16838BC6134C7BC7ABE0DBDBDAE13BD38
:103640001A25DABC6E3C27BCC6E7933BA71E033C99
:103650008A44A1BBE20200BDD3B773BD63CB96BD64
:103660000B3A75BD5A5A5DBC70A36B3D1F87093E6E
:103670001AFB453E01A55C3E1AFB453E1F87093EED
:1036800070A36B3D5A5A5DBC0B3A75BD63CB96BDBA
:10369000D3B773BDE20200BD8A44A1BBA71E033CA1
:1036A000C6E7933B6E3C27BC1A25DABCBDAE13BD02
:1036B0007ABE0DBD6134C7BCA16838BC8EB0FFBAFC
:1036C0009335E9B85DCBA9BB757558BCC3179EBCD3
:1036D000AD5BA5BC0D8880BC418B09BC46AA01BB73
:1036E000E358513A4DE622BA519D96BB4DD109BCE3
:1036F000ACBE20BC639804BC0DC18BBBF0A49CB9CC
:103700000CD8033B6C4DFF3AFDF9B43824B30EBB23
:103710008FEC62BB0AD14BBBB068B9BA2B5F2F3AB2
:10372000CCC20A3B02B01B3BA3C5CD3ADBB1AF39DB
:10373000AE2A1BBA558148BAA4AE57B91E75343AA1
:10374000814EB93A706BD63A8926AE3AEAE83F3AEA
:10375000B5D5403976C388B8A21B313840E7C639A1
:10376000D37A3F3A01486E3ADC245C3A48EF163A85
:10377000885A8639A3CE1338D114E1B92CA8DAB906
:103780007DF2D5B99E80D2B9EFC8CFB9242CCDB97E
:1037900059F6C9B96E60C5B9A691BEB989A1B4B9C7
:1037A000FE99A6B9A27993B9A66C74B9BF7F33B953
:1037B0009B0BC4B85E170A366D58F6389A8D85395A
:1037C0003CFCD9399FEB1D3A3402563ABFD58A3AB0
:1037D00031A3AE3ACE92D63A9C63013BD9AD193BA8
:1037E000CD31343BEEF4503B48F86F3B279C883B8F
:1037F0005A569A3B2D24AD3B9FFCC03B3BD4D53B56
:103800001E9DEB3B8223013CAADF0C3C9DF8183C3B
:10381000DE62253CF311323C74F83E3C22084C3CFD
:10382000FE31593C6666663C2C95733CDD56803C07
:1038300094CF863C332C8D3C2B64933CF76E993CA3
:103840002F449F3C96DBA43C2C2DAA3C3E31AF3C40
:1038500075E0B33CE633B83C2025BC3C3AAEBF3CF7
:10386000DCC9C23C5073C53C85A6C73C1E60C93C40
:10387000749DCA3CA05CCB3C799CCB3CA05CCB3C0F
:10388000749DCA3C1E60C93C85A6C73C5073C53CAC
:10389000DCC9C23C3AAEBF3C2025BC3CE633B83C58
:1038A00075E0B33C3E31AF3C2C2DAA3C96DBA43CEA
:1038B0002F449F3CF76E993C2B64933C332C8D3CFA
:1038C00094CF863CDD56803C2C95733C6666663C06
:1038D000FE31593C22084C3C74F83E3CF311323C1A
:1038E000DE62253C9DF8183CAADF0C3C8223013C9B
:1038F0001E9DEB3B3BD4D53B9FFCC03B2D24AD3BF9
:103900005A569A3B279C883B48F86F3BEEF4503B55
:10391000CD31343BD9AD193B9C63013BCE92D63AB5
:1039200031A3AE3ABFD58A3A3402563A9FEB1D3ADC
:103930003CFCD9399A8D85396D58F6385E170A36B0
:103940009B0BC4B8BF7F33B9A66C74B9A27993B985
:10395000FE99A6B989A1B4B9A691BEB96E60C5B9E0
:1039600059F6C9B9242CCDB9EFC8CFB99E80D2B9C8
:103970007DF2D5B92CA8DAB9D114E1B9FFFFFFFF68
:10398000FFFFFFFFA43900080000002054000000E2
:10399000A02C0008F839000854000020D4080000CA
:1039A000B02C000801000000010000000000000031
:1039B0000000000000000000000000000000000007
:1039C0000000000000000000007A030A0000000070
:1039D00000000000010203040607080900000000BF
:1039E00000000000000000000000010203040102CA
:0839F0000304060708090000AA
:040000050800018965
:00000001FF
